:100000002038001023B80000CF800012CC00020579
:1000100004180001CD80000ECD800203CC00020246
:10002000CD800201CC00000B8400032A00000000F8
:10003000CC000243CC000242CD800200C80C00403C
:100040001CE000802A200080CE0002411CE4010058
:100050002A640100CE400240CE40024296000006D3
:10006000000000009A4000040000000084000188A5
:10007000000000008000004E00000000CC00000ED8
:10008000CC00000E202801C3201C0000C808020577
:100090007F8B8007C80802019480002300000000C5
:1000A0008000006A00000000C80C020394C0000B2E
:1000B00000000000200C00018400014410F8001E24
:1000C0008400010E200C0001840001222038000071
:1000D0009B800012000000008400014411B8001F42
:1000E00084000122203800018400010E200C000051
:1000F000C03001C0CB3900002038000095C0FFE1BE
:10010000CF8000037DC1C006840001442038000078
:1001100080000020CF80000320380001CF80000342
:10012000CC000201C808001C9480002000000000E0
:10013000CD80000E00000000200C0003840001446C
:1001400010F8001E8400012020380002CC3100008D
:10015000C8080200988000040000000084000274B7
:10016000000000008400012220380001CD8002013F
:100170008400010E200C000084000144203800009F
:10018000C808000A94800007C8380069C834006AAB
:10019000CF790000CBB50000C0380FECCF7900005C
:1001A0008000002000000000C83800569B8000DC62
:1001B000201C0000C83800579B8000D9201C00017B
:1001C000C83800471FB8000197800003C0380010EE
:1001D000CF800047C80802009480000FC8080201C1
:1001E0009480000D00000000C808000A9480000AF6
:1001F00000000000CD80000EC8380069C834006AD5
:10020000CF790000CBB50000C0380FECCF790000EB
:10021000CC00000E201C0000C808020194800013CE
:1002200000000000C828000096800010200800018F
:10023000CD80000EC80C0020CC8000001C1C0000EB
:100240002A8801BB94800004000000008000013E69
:10025000000000002A8801BC988000900000000087
:100260008000010500000000C828000296800006FA
:1002700020080001CD80000ECC8000028000010526
:1002800000000000C828000196800008000000005F
:1002900020080001CD80000EC80C0021CC80000198
:1002A0008000010500000000C82800039680000EB1
:1002B00000000000CD80000E2A8C01E598C0FF7B75
:1002C000200800012A8C01E4C82002417CE0C0061D
:1002D00098C0013A20080001CC800003800001058D
:1002E00000000000C82800049680000700000000FD
:1002F00020080001CD80000ECC80000480000105A4
:1003000000000000C82800059680000700000000DB
:1003100020080001CD80000ECC8000058000010582
:1003200000000000C828002A968000070000000096
:10033000CD80000E840003970000000080000020A4
:1003400020180001C828002B96800007000000003C
:10035000CD80000E840003AE00000000800000206D
:1003600020180001C828002896800007000000001F
:10037000CD80000E840003B600000000800000E184
:1003800020180001C80802009480FF3E0000000011
:10039000C8280040C02E08007EAE80069680FF3937
:1003A00020180001C828002C9680000600000000DC
:1003B000C8280078CE80022C800000F020180001B0
:1003C000C80802019480FF2FC808002FCD80000EBE
:1003D000C80C022D7C8D0011950000037C8D00015E
:1003E000800000FCC015FFFF7D4CC0017C8D00002B
:1003F000C81C007B15DC00107D1D00119500FF213D
:1004000000000000840004F8CC80022D8000002051
:100410002018000184000109000000008000002075
:10042000000000001EA800FFCCC0000BCE80000C16
:100430008800000000000000C0300390CB390000AD
:10044000C00BFFFE7F8B800610CC00107F8F8007D3
:10045000CFB1000088000000CB390000CFB1000010
:10046000CD80000ECB3900001FB804F02BB804106B
:100470009780FFFD000000008800000000000000E1
:1004800080000117C03001C1C0302003CFB100008F
:1004900088000000CB390000C83802429B80000869
:1004A000C820024196000006C82402409A40000479
:1004B00000000000840002CC00000000C80C0040D6
:1004C000C012A0007D0CC0067D0CC00CCCC0002961
:1004D000C83802039B800004000000008000002058
:1004E00000000000CC0002038400014411B8001F8A
:1004F0008000002000000000CC000029CD80020315
:100500008400014420380000800000210000000029
:10051000C03001C088000000CFB1000099C0000BBE
:10052000C830004023300002CF0000408400015C4E
:1005300020380003C83000401F3003FDCF000040CA
:100540008000006ACC000056C830004023300040D4
:10055000CF0000408400016D20380001C830004009
:100560001F3003BFCF0000408000006ACC0000565F
:100570008400017800000000C03020088400018061
:100580002038FFFFC0302008CC310000CB390000FC
:10059000C03003988400018020380100C0300398E7
:1005A000CC310000CB090000C03021B6880000002B
:1005B000CC310000840001780000000020380001E8
:1005C000C03003988400018013B80014CC00005799
:1005D000C0300398CC31000088000000CB09000037
:1005E000CF9C0016CD80000EC9F000197F38800C1A
:1005F0009480FFFE00000000880000000000000062
:10060000CFB10000CB3900002008001F9880000007
:1006100008880001CC1C00168800000000000000C3
:10062000C838004453B8000820080248C030FFFF13
:10063000CB8E00007CF1400695400009CCC800003C
:1006400004880001CC08000004880001CC080000E8
:10065000048800018000018C47B80004CC8002436C
:100660008800000000000000C030FFFFC88C0000C0
:100670007CF100069500000F04880001C9150000F8
:10068000CD48000014CC00107CF100069500000954
:1006900004880001C9150000CD480000C82C001CCA
:1006A0009AC000047C2DC0078000019B04880001D3
:1006B0008800000000000000C030FFFFC88E00006E
:1006C0007CF100069500000F44880004C915000065
:1006D000CD4A000014CC00107CF100069500000902
:1006E00044880004C9150000CD4A0000C82C001C35
:1006F0009AC000047C2DC007800001AF448800042C
:100700008800000000000000C010200BC014000092
:10071000C016C000CD510000C9150000C030FFFF59
:10072000C88C00007CF100069500000C04880001D4
:10073000C8940000CD51000014CC00107CF10006DC
:100740009500000604880001C8940000CD51000007
:10075000800001C80488000188000000000000003B
:10076000C010200BC0140000C016C000CD51000006
:10077000C9150000C030FFFFC88E00007CF10006E4
:100780009500000C44880004C8960000CD5100007C
:1007900014CC00107CF1000695000006448800048B
:1007A000C8960000CD510000800001DE448800049E
:1007B0008800000000000000C9CC020394C0007C47
:1007C00020080000C00C21B6C8D10000C00A1400E7
:1007D0007D0900069900007620080000200C000129
:1007E0008400014410F8001E840001222038000219
:1007F0009780006F20080000C82402409A4000063D
:10080000000000008400019A2008024880000209CC
:1008100000000000C808004450880008840001AEB1
:100820000000000099C00062200800008400010E52
:10083000200C000184000122203800009780005C19
:1008400020080000CC000200CC000201C03403915B
:100850002010000020080003CD350000C030218D9D
:10086000200C0001CCF10000C030218E20CC3FFFD5
:10087000CCF1000005100001088800019880FFF706
:10088000C03021B6C00A1400CCB10000CC35000045
:10089000C80800401C88020098800042C03000A1B7
:1008A000C0100050CD310000C03000A2CB110000BC
:1008B0001D0C000194C0000700000000C80C001CC3
:1008C00094C0FFFB000000008000026B00000000ED
:1008D0001D0C010094C00033C0303DAFCB0D0000B3
:1008E0001CCC000294C0002FC0303D34CB0D000062
:1008F00098C0002F0000000000000000C80802445B
:1009000004880001CC800244C0303D35CC31000069
:10091000C0303D31CDB10000C0303D34CB0D0000C2
:100920001CC80001988000101CC8000298800007B5
:10093000C80C001C94C0FFFA00000000C81002455B
:1009400005100001CD000245C81002460510000147
:10095000CD000246C0303D35CDB100008000026BB5
:100960002008000020080001CC800003C03000A156
:10097000C0080054CCB10000C03000A2C008010083
:10098000CB0D00007CC8C00698C0FFFE0000000030
:10099000C0303D35CDB100008000002000000000D7
:1009A0002008000180000020CC8000038400012288
:1009B000203800018400014411B8001FCC800003DE
:1009C0008400014420380000800000200000000066
:1009D000200C00038400014410F8001E8400012252
:1009E00020380002C82402409A400006000000009F
:1009F000840001C220080248800002830000000039
:100A0000C8080044840001D850880008C83800484D
:100A100097800041C83802429B800004000000001B
:100A2000840002CC00000000C83800471FB8000155
:100A300097800003C0380010CF800047C8380047B7
:100A40001FB800109B80FFFE0000000084000322FE
:100A5000000000008400012220380001C824024068
:100A60009A400006C8380048840002FFC838024394
:100A7000800002A000000000840002E953B80008D2
:100A8000C030A1F4C034A0D923080400234C0400D2
:100A9000C8D10000CD350000CC09000023080800B3
:100AA000234C0800C8D10000CD350000CC0900005F
:100AB00023080C00234C0C00C8D10000CD350000E9
:100AC000CC09000023081000234C1000C8D10000FE
:100AD000CD350000CC09000023081400234C14007D
:100AE000C8D10000CD350000CC0900002308180053
:100AF000234C1800C8D10000CD350000CC090000FF
:100B000023081C00234C1C00C8D10000CD35000078
:100B1000CC090000CD800200C00C21B6CC0D000035
:100B2000840001442038000088000000000000001C
:100B3000C83800489B80000453B8000888000000B3
:100B400000000000C808024304880001CB8E0000AA
:100B5000CCC8000047B8000404880001CB8E000018
:100B6000CCC8000047B8000404880001CB8E000008
:100B7000CCC8000047B8000404880001CB8E0000F8
:100B8000CCC8000047B8000404880001CB8E0000E8
:100B90001CD000019500FFF3CCC8000088000000C5
:100BA000CCC00242CB8A0000C00C2181CC8D000059
:100BB000C00C2183CC0D0000C028000447B80004FD
:100BC000CB8E00001CF400019B40002547B80004B8
:100BD000CB92000047B80004CB9600008400031BB2
:100BE0000AA800019A80FFF600000000840003229A
:100BF000C00821A0800002EFC0280004C8380243CA
:100C000007B80001CB880000C00C2181CC8D00000A
:100C1000C00C2183CC0D0000C028000407B80001DF
:100C2000CB8C00001CF400019B40000D07B80001B4
:100C3000CB90000007B80001CB9400008400031B98
:100C40000AA800019A80FFF6000000008400032239
:100C5000C00821A080000307C028000484000322EC
:100C6000000000008800000000000000C008218093
:100C7000CCC90000C0082182CD090000C008218431
:100C800088000000CD490000C00821A0C88D0000E8
:100C900014CC00161CCC000198C0FFFD0000000021
:100CA0008800000000000000C008DEADCC800043DA
:100CB000C00A202020880500200C0000CC8C0207F0
:100CC000C00A606020880F0504CC0001CC8C0207AC
:100CD000C00A606020881E0F04CC0001CC8C020783
:100CE000C00A60602088281E04CC0001CC8C02075A
:100CF000C00A60602088322804CC0001CC8C020736
:100D0000C00A606020883C3204CC0001CC8C020711
:100D1000C00A70702088503C04CC0001CC8C0207C3
:100D2000C00A808020885A5004CC0001CC8C020775
:100D3000C00A808020885F5A04CC0001CC8C020756
:100D4000C00A80802088645F04CC0001CC8C02073C
:100D5000C00A80802088696404CC0001CC8C020722
:100D6000C00A808020886E6904CC0001CC8C020708
:100D7000C00A80802088736E04CC0001CC8C0207EE
:100D8000C00AC0C02088787304CC0001CC8C020754
:100D9000C00AC0C020887D7804CC0001CC8C02073A
:100DA000C00AFFFF2088807D04CC0001CC8C0207A4
:100DB000C00A004020880010CC800226CC00022D02
:100DC000C0080002CC800235CC00002ECC000247C7
:100DD000CC00022C840004ED00000000C008003F9D
:100DE000CC80022988000000CC000217840004A9EE
:100DF00000000000C80802177C94800C9880000C4A
:100E000000000000CD400217CD4002298400046C90
:100E10007C148007CCC0021FCCC00221C808007A15
:100E20008400046C1C88FFFFCCC00235C808002D6C
:100E3000C00C0001C01000067CD0C00308CC00012B
:100E40007C8CC006C0100217C0140229840004E57F
:100E5000000000008800000000000000C8080043F7
:100E600098800006000000008400032A00000000B3
:100E70008400037B00000000CC00021BC0080500BA
:100E8000840003D7CC00021CC8080046C80C0045EB
:100E90007CC88001C81C007B1DDC00FE15DC000145
:100EA0007C9C8012840004DBCC000227CD40022809
:100EB0008800000000000000C0080000840003D784
:100EC00000000000C80C00791CCCFFFFC00824D52E
:100ED0008800000000000000C80802009480001E86
:100EE00000000000C8080247C80C002D7C8C800C54
:100EF0009480001900000000C808002DC00C0001FB
:100F0000C01000067CD0C00308CC00017C8CC00659
:100F1000C0100217C0140229840004E5000000007C
:100F2000840003DC00000000C808022704880001D8
:100F3000CC800227C80C007B1CCC00FE14CC000126
:100F40007C8CC00E98C0000400000000840003EAFE
:100F5000D00002278800000000000000C00C239A87
:100F6000CC8D0000C00C239888000000CC8D0000C0
:100F7000C00803208400040E00000000C808021B03
:100F80007D488010CC800224CD40021B8400046682
:100F900000000000C808021C7D488010CC8002259B
:100FA00088000000CD40021C8400037B000000008C
:100FB000C0080700840003D700000000C00801003B
:100FC0008400040E00000000CD400219C00801108A
:100FD0008400040E00000000CD40021AC810022157
:100FE000C8080219200C020720240000840004B65F
:100FF00000000000CD40021DC808021A200C0207A4
:1010000020240001840004B600000000CD40021E30
:10101000C80C021DC810021E7CD14011994000036B
:10102000000000007D00C00784000428CCC002231B
:10103000880000000000000020140000201C0000B8
:10104000C0102398CC910000C010239ACC910000CE
:10105000C010239984000422000000007D69400034
:10106000C010239B84000422000000007D69400022
:1010700099C000040488000180000410201C0001B5
:101080008800000000000000C92100001E28FFFFAA
:10109000162000107EA280008800000000000000E2
:1010A00028D000409900003BC838022138DC0040BD
:1010B00095C000117F81800708CC00407CD9C01208
:1010C00015DC0006C820021F7E3A0001C80C02177A
:1010D000C0140229CD40022E20140004840004759F
:1010E00000000000C0380006CF80022180000464A8
:1010F00000000000C81C007B1DDC000199C0000E30
:10110000C8200224C82402257E25C007C820021B4F
:10111000C82402261E68FFFF7E2A80107DE9C007D2
:10112000C820021C166800107E2A40107DE5C0070A
:1011300099C00018201C00407DCCC0017CD9C01291
:1011400015DC0006C82002357FA2001096000011B1
:10115000C82002357FA200017DE1401099400003C4
:10116000000000007DC20007C0140229CD40022EFD
:10117000C80C0217C810007A1D10FFFF20140004CD
:101180008400048C00000000C0380002CF800221DF
:101190008800000000000000C00C24D4C01024D639
:1011A000201C0001CDCD000088000000C915000002
:1011B000200C0000C01000061C9400010910000162
:1011C0007CD4C0009900FFFD148800018800000055
:1011D00000000000C808022EC88800007C098007B3
:1011E000201C0000C02C00069540000F0AEC0001F6
:1011F0007CAF40047CEE80041F7400017F43400BF1
:101200007F6B400697400006203000017F2F0003CF
:101210007DB180070954000105DC00019AC0FFF38D
:1012200000000000C820022E88000000CDA00000B1
:10123000C808022EC88800007C098007201C000016
:10124000202C0000C0200006954000147CAF400414
:101250007CEE80041F7400017F6B40067D2E8004AD
:101260001EA800012AA800007F6B400697400007D7
:1012700000000000203000017F2F00037DB18008B6
:101280000954000105DC00010A20000106EC000100
:101290009A00FFEE00000000C820022E8800000027
:1012A000CDA00000C0082254C88900001488001096
:1012B000C00C2255C8CD000014CC00107C8D400716
:1012C000C00C24D7C8CD00007CC0C00B7D4D4007AA
:1012D000880000007D41400BC01C2047CC9D0000D1
:1012E000C01C2046CD1D0000C81C0228C02020457F
:1012F000CDE1000009DC000709DC0004202000002B
:101300003E1800109580000400000000800004D901
:1013100020140040C8D4000004CC000106200001C5
:101320001D5800FF7D9180127D9D80037C99801166
:101330009580FFF41D58FF00159800087D918012DC
:101340007D9D80037C99800F9580FFEE000000005A
:1013500015540010964000030000000015540008CA
:101360001D5400FF88000000000000002014001F32
:101370007C94C0041CCC000198C000050000000053
:10138000095400019940FFFB0000000088000000A4
:10139000000000007CC0C00BC94800007C8CC00667
:1013A000C90800007C8CC006C00824D58800000055
:1013B000CCC90000C00C0006C01000017CD0C012D7
:1013C000C010000094C0000508CC0001CC10022F12
:1013D000800004F1051000018800000000000000FA
:1013E000C808022CC00C0006C01000017CD0C0123E
:1013F000C0100000C01C000094C000137C91400489
:101400001D5400019940000CC0180000C918022F9B
:1014100005980001C814007B1D54FF0015540008F6
:101420007D954011954000047D5140037D5DC007CE
:1014300009980001CD90022F05100001800004FEE4
:1014400008CC000184000515CDC0022B88000000E7
:1014500000000000C8080247C80C002D7C8C800CDE
:101460009480000E00000000C808022BC80C02295E
:10147000C01024D5C91100007CD0C007C0100FF8DF
:10148000C91100007CD0C0077CC0C00B7C8CC0069A
:10149000CCC00247CCC0002E880000000000000035
:1014A000000000000000000000000000000000003C
:1014B000000000000000000000000000000000002C
:1014C000000000000000000000000000000000001C
:1014D000000000000000000000000000000000000C
:00000001FF
