:100000007C40800188000000D440007F7C4080015B
:1000100088000000C420000BC60C000594C000241A
:100020002450000F3114000295400004CC400024FD
:10003000CC40002580000000311400039540013BB6
:10004000CC400026CC40002780000000C420000BDC
:10005000CC2000057C410001505400207C418001EF
:1000600006240001CE400000159C00187D15001AE2
:10007000CDE0000ACDA0000CD1200003CDA00003EC
:100080009A000004C42400129A40000221DC0030CF
:100090008000014CC420000BC60C00051CA80010F9
:1000A00094C00003CEA0000780000015CC0000091A
:1000B000C424007FC420000B7C4180010A20000181
:1000C000C6140008C61800057D59800ACE0000003D
:1000D00095800003CC20000780000000CC200005A4
:1000E000800000007C40C00114D0001E31140002CA
:1000F0009540010E18D001E818D4003018D800340B
:10010000052800447C4200017C4240019500000724
:100110008680000080000150800001508000015066
:100120008000015080000052115400107E16000A19
:10013000CD400011D46100009580FFB2C439214048
:100140007C4080018800000011540010526400209F
:100150007E26001ACD400011D46200009580FFA9D0
:10016000C420000E9A00FFFF7C4080018800000040
:100170007C40C00114D0001E31140002954000EBF9
:1001800018D4003018D001E818FC003424CC000F3B
:1001900004E800687C4180017C41C00194C00012E9
:1001A00086800000800000728000015080000150B5
:1001B000800001508000006F8000015051DC002061
:1001C0007D9E001A8000007F51DC00207D9D801AFA
:1001D00099400003C5A200008000007FC9A2000072
:1001E0008000007FC5A10000954000050598000132
:1001F000C5A50000526400207E26001A0528008351
:100200007C4180017C41C001950000078680000090
:10021000800001508000015080000150800001509A
:1002200080000093D8000011CE1900009540000412
:100230000598000156200020CE19000097C0FF71DC
:10024000C43921407C4080018800000051DC00203E
:100250007D9D801AD8000011CE1A00009540000440
:100260000598000456200020CE1A00009BC0FFBD58
:100270007C40800188000000D80003F6D80003F518
:10028000D80003F4D80003F3D80003F2D80003F138
:10029000D80003F0D80003EFD80003EECC40007F75
:1002A000CC40007FCC40007F7C40C001CCC000012E
:1002B000D440007F800000007C40C00150500020EE
:1002C0008C0000CB7CD0C01AC420000BC4D6000028
:1002D0007C438001C42400139A000009D86403F40D
:1002E000C66B03F19A80FFFFC66B03EE06A8000100
:1002F000CEA403EECD6403EBD82403F499400009A7
:10030000DF830000CFA0000E8C0000CFD440007F20
:100310009A00FF3CC67303EE9B00FFFF80000000C5
:100320008C0000CF7C40800188000000D8000002D3
:10033000C43C000D9BC0008390000000D840000228
:10034000C43C000D97C0007F90000000D800001250
:100350007C40C00150500020C43C001027FC00012C
:1003600097C0FFFE7CD0C01AD0C00014CC4000154E
:10037000C41000217C50C001CCC00016D80000136E
:1003800080000000C41000217C50C001CCC00017C8
:10039000D440001880000000C41000217C50C0012F
:1003A000CCC00017C41000207C50C001CCC0001984
:1003B00080000000C41000217C50C001CCC0001A95
:1003C000CC40001B7C40C001505000207CD0C01AA3
:1003D000D0C0001C80000000CC400021D8000022CA
:1003E000800000007C40C001505000207D0D401A6C
:1003F000D8400029C818001D7D95C00F95C0FFFE8C
:10040000D8000029800000007C40C001C810001DF9
:10041000C814001E7D15800E9980000FD840002959
:10042000C810001D7D5180127D8DC00F99C0FFFD49
:10043000D800002950E000017E16400E9A400004CA
:100440007D628012D280002380000000D000002353
:1004500080000000D8800029C43C007FCC00002030
:10046000D8400028C40C001C98C0FFFFD80000280A
:100470007C410001505400207D16001AD200001E5D
:10048000D840001D80000000CC000020D84000288B
:10049000C40C001C98C0FFFFD8000028D000001E2C
:1004A000D000001FD840001D7C41000180000000EA
:1004B0007C40C0017C4100011518001FCD000011D7
:1004C0005114002099800003D44D000080000000EA
:1004D0007D4D401A191C0031D4560000C420000E76
:1004E00095C0FEC8C420000E9A00FFFF80000000E7
:1004F0007C40C0017C41800114D0001E31100002FC
:1005000024D400FF9500FEBFCD94030080000000BE
:10051000C42000137C40C001C4D30300CC000011F0
:10052000CD21214180000000D440007F80000000E8
:10053000C424007E964000037C40800188000000B7
:1005400080000150000000000000000000000000DA
:10055000000000000000000000000000000000009B
:10056000000000000000000000000000000000008B
:10057000000000000000000000000000000000007B
:10058000000000000000000000000000000000006B
:10200000000100020010014A001100050019002D16
:102010000031002500330013008000D3008100E16F
:10202000008200E6008300ED003700390040005CCC
:102030000044009E008400F6008700F90088010239
:1020400000890117007D013C007E0144007F012CC6
:10205000002200AE008B01220000000200000002FE
:102060000000000200000002000000020000000268
:102070000000000200000002000000020000000258
:102080000000000200000002000000020000000248
:102090000000000200000002000000020000000238
:1020A0000000000200000002000000020000000228
:1020B0000000000200000002000000020000000218
:1020C0000000000200000002000000020000000208
:1020D00000000002000000020000000200000002F8
:1020E00000000002000000020000000200000002E8
:1020F00000000002000000020000000200000002D8
:1021000000000002000000020000000200000002C7
:1021100000000002000000020000000200000002B7
:1021200000000002000000020000000200000002A7
:102130000000000200000002000000020000000297
:102140000000000200000002000000020000000287
:102150000000000200000002000000020000000277
:102160000000000200000002000000020000000267
:102170000000000200000002000000020000000257
:00000001FF
